:100000000C94320F0C944F0F0C944F0F0C94DD1E78
:100010000C944F0F0C944F0F0C944F0F0C94E82A34
:100020000C944F0F0C944F0F0C944F0F0C944F0FD8
:100030000C944F0F0C94552C0C944F0F0C944F0FA5
:100040000C944F0F0C944F0F0C944F0F0C944F0FB8
:100050000C944F0F4142434445464748494A4B4C54
:100060004D4E4F505152535455565758595A61623C
:10007000636465666768696A6B6C6D6E6F707172D8
:10008000737475767778797A303132333435363720
:1000900038392B2F3D002563000A0D54494D453A50
:1000A000202532693A2532693A2532690D0A00491C
:1000B0006E68616C74206465722056617269616259
:1000C0006C655B2532695D203D202532690D0A0093
:1000D000202054696D653A2534690D0A00202050AE
:1000E0004F52543A253469002E253369002E2533AA
:1000F00069002E25336900202049503A25336900D4
:1001000025326900202054696D653A2534690D0A4D
:10011000002E253369002E253369002E2533690012
:10012000202049503A253369002E253278002E25AB
:100130003278002E253278002E253278002E253296
:10014000780025326920204D41433A253278004518
:100150004E4332384A36302D56657273696F6E3AA7
:10016000202531780D0A004D79204D41433A202554
:1001700032783A2532783A2532783A2532783A255B
:1001800032783A2532780D0A00526F757465722004
:1001900049503A202531692E2531692E2531692EA5
:1001A0002531690D0A004E45544D41534B3A2025E7
:1001B00031692E2531692E2531692E2531690D0AC7
:1001C000004D792049503A202531692E2531692E7C
:1001D0002531692E2531690D0A00524553455420B9
:1001E000202D207265736574207468652041565215
:1001F000202D20436F6E74726F6C6C65720D0A4116
:100200005250202020202D206C6973742074686562
:1002100020415250207461626C650D0A5443502095
:100220002020202D206C697374207468652074630D
:1002300070207461626C650D0A49502020202020D6
:100240002D206C6973742F6368616E676520697017
:100250000D0A4E4554202020202D206C6973742FE8
:100260006368616E6765206E65746D61736B0D0AFE
:10027000524F55544552202D206C6973742F63687A
:10028000616E676520726F757465722069700D0A02
:100290004E5450202020202D206C6973742F6368E9
:1002A000616E6765204E54500D0A4E545052202006
:1002B000202D204E545020526566726573680D0AD9
:1002C0004D4143202020202D206C697374204D4126
:1002D000432D616464726573730D0A564552202084
:1002E00020202D206C69737420656E632076657202
:1002F00073696F6E206E756D6265720D0A535620BC
:10030000202020202D20736574207661726961623F
:100310006C650D0A50494E472020202D2073656ED4
:10032000642050696E670D0A54494D452020202DE8
:10033000206765742074696D650D0A48454C50202E
:1003400020202D207072696E742048656C70746571
:1003500078740D0A3F2020202020202D2070726903
:100360006E742048656C70746578740D0A006C6555
:10037000646F66662E676966006C65646F6E2E67D3
:100380006966000000636865636B656400504F53E5
:10039000540034303120556E617574686F72697A1B
:1003A000656425454E4400485454502F312E30206A
:1003B00032303020446F63756D656E7420666F6CEB
:1003C0006C6F77730D0A5365727665723A204156E9
:1003D000525F536D616C6C5F5765627365727665D1
:1003E000720D0A43616368652D436F6E74726F6CA2
:1003F0003A206D61782D6167653D363030303030A0
:10040000300D0A436F6E74656E742D547970653AC1
:1004100020746578742F6373730D0A0D0A004854B5
:1004200054502F312E302032303020446F63756DA0
:10043000656E7420666F6C6C6F77730D0A5365720E
:100440007665723A204156525F536D616C6C5F570E
:1004500065627365727665720D0A43616368652D26
:10046000436F6E74726F6C3A206D61782D616765B1
:100470003D363030303030300D0A436F6E74656E6B
:10048000742D547970653A20696D6167652F6769CD
:10049000660D0A0D0A00485454502F312E30203278
:1004A000303020446F63756D656E7420666F6C6CC0
:1004B0006F77730D0A5365727665723A2041565212
:1004C0005F536D616C6C5F576562736572766572C0
:1004D0000D0A436F6E74656E742D547970653A2001
:1004E000696D6167652F6A7065670D0A0D0A0048BE
:1004F0005454502F312E302034303120556E6175D8
:1005000074686F72697A65640D0A536572766572F4
:100510003A204156525F536D616C6C5F5765627350
:1005200065727665720D0A5757572D417574686567
:100530006E7469636174653A204261736963207205
:1005400065616C6D3D224E65656450617373776FB4
:100550007264220D0A436F6E74656E742D54797047
:10056000653A20746578742F68746D6C0D0A0D0AF5
:1005700000485454502F312E302032303020446FF8
:1005800063756D656E7420666F6C6C6F77730D0AA2
:100590005365727665723A204156525F536D616CB5
:1005A0006C5F5765627365727665720D0A436F6E94
:1005B00074656E742D547970653A20746578742F63
:1005C00068746D6C0D0A0D0A00485454502F312E7A
:1005D000302032303020446F63756D656E74206654
:1005E0006F6C6C6F77730D0A5365727665723A2083
:1005F0004156525F536D616C6C5F576562736572F3
:100600007665720D0A436F6E74656E742D54797041
:10061000653A20746578742F706C61696E0D0A0DEF
:100620000A004749463839615A005C00A204007943
:1006300079D8F6F4E1C9C9E09C98D8FFFFFFF4F639
:10064000B0F9FD7CA6A48E21F90401000004002C61
:10065000000000005A005C000003FF48BADCFE2ED8
:100660002C4982A5B35A21B49618068D64697A8DF7
:1006700085A65CA5A88F78CEB429BF99300C541FED
:10068000D7C0E00B36C4650803C0C018E84C6EC282
:1006900028E9C22C1061802C2EB0937A69A04B58A7
:1006A000614D55B2CB854009837EDF9FDE6E270802
:1006B0005FD6EC57B2FE72C2836E165620493B5984
:1006C0007C61783C1549794D7C7F80442F05655CC1
:1006D0004A0B7B4F8A9968126B7E9133622E139579
:1006E0009F8E4D59228A1B9E4D7B6E66A271220100
:1006F00095056775033AAF139A04781D9769A5B4F9
:100700005362B6B81600BB599E4F3B206B3CAABC47
:10071000C647C70C17832015CB01ABC1070790DF75
:10072000052D153A2087A3B25282A7210506A78579
:10073000F176B7DD1A75E8E5B693B0450A03CE1435
:10074000BD41B1E4A90860A05E087C4364F8785715
:1007500063E2B96594E8D53BD30CFF1C8886959E6F
:10076000DCF2A1A00EAC39739C488C716524A145C4
:10077000FA1C6AA8041215008FB740E6A260A59B78
:100780000E434A9E3DE345D1863E668E3426D3B85D
:10079000F1D28153DF1ACABC50AE97D0431C1A3530
:1007A0000B18459F95A1FD6A4E90BA33CB017D5140
:1007B0001D3ED22A94688F4B5B6D40007850119B90
:1007C0009C213F8A4D380897D5ABBC4C4EE840CDB4
:1007D000DC082ADB20E06A648817CD4115C85AD8A6
:1007E000034EC001B687DA20A9C38183129546BEA5
:1007F000E8632C5480C6534CCB911340D60A1E3468
:100800009030F0A016B85D9C6C5304FE6A86F9A97E
:10081000CED4E568D63B35D41B150985B0668EE08D
:100820004256B2E35B9270E9DDFAF76372955EA718
:1008300021D54495A77B22B92373C91D390058CD12
:10084000D0300529B53DF6ECCF86254EFEB9D173E3
:10085000852BE6C6537861556061FFEBB5D75E0125
:10086000C15572407C0F5503562F1BE08213185E52
:100870006124CC1C43AD67A1813D3DA59D1C48F082
:100880003214019971E0A03C15CD34A277577972EA
:10089000DA7A6779155C38F1BD70DE6B5B0913C0DD
:1008A00059273AF7033723FE445F85023674A0695F
:1008B000FE3CF5D587C87986206CEFED03CF7E121C
:1008C000D687C67941D6438E95375971A0501450BA
:1008D00083203516F806996E42C454532CAEB05698
:1008E000E56300B4A81563EAB4E5DD2DEF8D51D4BE
:1008F0002C89E544965D4205285C439C315607826D
:10090000483C33D9564D3257620AF19055085BA6E0
:1009100091859D90E830E6CA2B9C3068594FC655AA
:10092000F4DC0D661A306456663145A0985AC60844
:10093000171A25119584862671F59C1950E6F8C47E
:10094000410560B6CA80A6B245C1A3997507637612
:100950006DF038A293DB1C7BAC18FF8FF90854A410
:10096000411278950BB114320C1E46DAE120AF2407
:10097000EA37A280CAC2D899B57E0AE38B74C13C1B
:100980006A15913D05D8DA984FB0F4A74E96B1ABF1
:100990008856BEED69DF67BF02104C8A866EBB26A3
:1009A000B2C5CAEA154834667BD9B8879CF69A3531
:1009B00054EC0170A9550E470A9E571401258D6D00
:1009C0001A59188DCBC009A60B1C6FD5C4A4D1969B
:1009D000815B62CCD9525285A756A26B96D2F24B5C
:1009E0004D29343AE62EAFC9CC45E60F71B201D29B
:1009F00001F5E86AE496E2C4F27271A755DCCDC550
:100A00009E7ECACE56B8106D40CE05BEF9B21334E4
:100A1000B2EB1A394D3E8D4FCF2DD79A239AB80C91
:100A2000FD2ABB48C7050A4766DD62D99655851D74
:100A300061B80B35D7E8C01E1FF8CF85B8E63A2558
:100A4000D7E7AD1AA96B6E556DF58003F3C76CDA65
:100A5000551A5929D857AED9C84FFFBFFC952FE575
:100A600094435E317B39CE1AD1B1553DF2C8DCE0FA
:100A7000A2E309262A681EA088A7FE9DB2E352BB06
:100A80007CEB2073736E64B45B32131B5C4446DBF7
:100A9000D0A1F9E25D828E796744D3E2038AABCEBE
:100AA000220A5C6EAAE7C3C7E7A0E8DE00B1D0E384
:100AB0006B0E783972D0C3C8C38A93120D5FC30F0F
:100AC000DE898D320237EEF133242F819498EFD5F1
:100AD0005F9556D00E47B07E2C5FF4B9901AAA1FCE
:100AE000ABD4609E7CE9EF46476B5B9BF2671DA928
:100AF000F9CC7FFF930A76E686A2D8F0E255015A38
:100B00008DA97437AFD989ED2DA3EBE0FFD0911DEE
:100B100067D08101ADE0DDBC8E558F08864E6FCA6F
:100B20008AE1633628B90985427A1174A10CF1B6BD
:100B3000BDBBD10E4A8C1B1A1B38108686E5508728
:100B4000A8B9CFA722203ABD852A48306ADDD476DD
:100B500077441DE6AD76EA63949EFF2A7689D6A592
:100B6000EB333B634F156B923DA8E1C904D4AB92C4
:100B7000304A02170302507F221CA1CA7E16AFC35F
:100B8000EC2D759261157AD86021C9516E8C3AE1CD
:100B90008AF60E96BAB411CB50872A5C0C75F7B959
:100BA0006FB5267B92E8A0B284F89314D54177C143
:100BB000D9541AB9B5378F94088818E9A4222AF9AC
:100BC0008C002E905403108E6BE208995A91D11D1F
:100BD0003EB4C44CC8D216544A4E756E425FEC8285
:100BE000172DF63105313EC36206B668005D718689
:100BF00098AA4B6501866296DCB19224FB211B4BBF
:100C00007AE632644EE92A6E04494796591A7DCC39
:100C1000ED994770A01DA1D380158202338EE11D8E
:100C20006B6A36000362C8913A99263073131064D8
:100C3000DE880780B14CE48A470E625A898C2B7C8F
:100C40004844446321DFD1C63F37999D75B8F548C4
:100C500041F00A68803091645471FF23255CAE9D99
:100C60003B0BE3BB4C350455CE110E66BB030F8620
:100C700064ADDDC5B13A1335D53C66F8D1AE18ABDD
:100C8000585B39447CBCE627860254A55B98A120BA
:100C9000077994B7B493183662214A6B5250338562
:100CA000A414119AA724667512EF0CAA4D2B5A6151
:100CB00041FFD40D4342B3204F229BE9D0A320A88B
:100CC0000234A56025632703914579027321DFA3D0
:100CD000862A1DFA55B14AC614810C8D5CFF10029C
:100CE0001BFD444F550DAB5AB6988B8C582C04DA2B
:100CF00088C01A61111685AC68ACB39489F2A01251
:100D000058A41222582DC02BB3C42AD9C4CEF1A5A1
:100D10002B39067A0473BBBD4A961B62010146B6A5
:100D200070144595691B5DB2D627221BA15BEDF5BA
:100D30001C8ABD882C6B51D6131CE724A0E98E8930
:100D400064E9D0CBE2E5B6587562637BE196FE8D2F
:100D5000CDB51FFD6DB2BAE5C4DA5BE6461D88E885
:100D60005F0879EB155F22E6B82B13453541F896FD
:100D70009EC290B1CAA34B4B032B50634041109AC3
:100D8000B98875496BC6C69A964CE8156F5F6F7542
:100D9000D6F6BA77A9A0026F47EBA9D4FB9E968935
:100DA000060BB073FD6B94F3F697C08DDDA97D1132
:100DB0004C5EE4213801003B25454E444749463806
:100DC000396102000A00A20000A2A5ED848FE56649
:100DD0007CDD4960D62144DAFE01020000000000FB
:100DE0000021F90405140005002C00000000020099
:100DF0000A0000030A483423120148001D53090069
:100E00003B25454E4447494638396111001100A23F
:100E100007005756576969697E7E7E909191B0B000
:100E2000B0C8C8C8E7E7E7FFFFFF21F904010000E9
:100E300007002C000000001100110000036F78AAC9
:100E40005645B0AC794C73706839AD190120064233
:100E5000492C56416A431990016705034468A5F07F
:100E60000A55D1128E47CBA503AA6A85C62DA7A322
:100E7000390048CCB03482406B99A94004B00A587C
:100E8000386615C42CBB00029FCE9C23750F2D1213
:100E90005B0708280A2E793BF45610767C757C2770
:100EA00013782F5C55140B372124840B09003B2544
:100EB000454E4447494638396111001100A20700E8
:100EC00062626219AD2121E22CA5A5A564E66BA59D
:100ED000F3A9D5D5D5FFFFFF21F9040100000700D4
:100EE0002C000000001100110000036078AAD6F366
:100EF00066C9D3EABB5156127A1700302C4DF1095E
:100F0000A8D085591308444CA46A48192A51EC7397
:100F1000BA0E2ED8AE10A30544411D8F56130D5E98
:100F2000B2A231F478A17ACCA3D3CA9C020C4F6E42
:100F3000F777A8767D364AE8E4D38E1483B5C743A5
:100F40009D1842F8FC7B528EE3F70A09003B2545C9
:100F50004E44626F64797B6D617267696E3A2034CA
:100F60003070783B7D20626F64792C702C646976D8
:100F70002C68312C68322C74642C74687B666F6E1C
:100F8000742D66616D696C793A73616E732D73654A
:100F90007269663B666F6E742D73697A653A31319A
:100FA00070787D68317B666F6E742D73697A653AEF
:100FB000323070783B636F6C6F723A776869746532
:100FC0003B206261636B67726F756E642D636F6C3B
:100FD0006F723A233936423131433B6D6172676932
:100FE0006E3A3170783B70616464696E673A35704F
:100FF000783B746578742D616C69676E3A63656ED1
:101000007465723B7D68327B666F6E742D73697A8E
:10101000653A313870783B636F6C6F723A233936BA
:10102000423131437D702C68327B6D617267696E2D
:101030003A3070783070783570783070787D696DBE
:10104000677B626F726465723A307D68727B636F32
:101050006C6F723A73696C7665723B206261636B88
:1010600067726F756E642D636F6C6F723A73696C23
:101070007665723B626F726465723A303B6865698F
:101080006768743A3170787D236E61767B666F6E27
:10109000742D73697A653A20313670783B2062612D
:1010A000636B67726F756E642D636F6C6F723A73EA
:1010B000696C7665723B6D617267696E3A31707802
:1010C0003B70616464696E673A3570783B666F6E39
:1010D000742D7765696768743A626F6C647D236EFE
:1010E000617620612C20237461696C20617B636FC1
:1010F0006C6F723A77686974653B207061646469EB
:101100006E673A313070783B746578742D6465632E
:101110006F726174696F6E3A6E6F6E657D236E617A
:101120007620613A686F7665722C237461696C2051
:10113000613A686F7665727B746578742D64656357
:101140006F726174696F6E3A756E6465726C696E08
:10115000657D237461696C7B20636F6C6F723A7775
:10116000686974653B206261636B67726F756E645A
:101170002D636F6C6F723A73696C7665723B746540
:1011800078742D616C69676E3A63656E7465723B45
:1011900070616464696E673A3570787D236D61694A
:1011A0006E7B746578742D616C69676E3A63656EE9
:1011B0007465723B6D617267696E3A323070787D2A
:1011C0002E636C6561727B636C6561723A6C6566F7
:1011D000747D2E74656D7054626C207B7461626CDA
:1011E000652D6C61796F75743A6175746F3B626FD0
:1011F000726465722D73706163696E673A307D2E1B
:1012000074656D7054626C2074647B746578742DA1
:10121000616C69676E3A63656E7465723B70616498
:1012200064696E673A3770787D2E74656D705462AC
:101230006C2074687B6261636B67726F756E642D7E
:10124000636F6C6F723A73696C7665727D25454E7B
:1012500044003C21444F43545950452068746D6C00
:10126000205055424C494320222D2F2F5733432FD6
:101270002F4454442048544D4C20342E30312054B7
:1012800072616E736974696F6E616C2F2F454E22A7
:101290002022687474703A2F2F7777772E77332E49
:1012A0006F72672F54522F68746D6C342F6C6F6F90
:1012B00073652E647464223E0D0A3C68746D6C3E46
:1012C0003C686561643E0D0A3C6D6574612068741C
:1012D00074702D65717569763D22636F6E74656EED
:1012E000742D747970652220636F6E74656E743D21
:1012F00022746578742F68746D6C3B20636861722A
:101300007365743D49534F2D383835392D31223EA0
:101310000D0A3C7469746C653E415652206D696ECD
:101320006920576562736572766572203A2053743E
:10133000617475733C2F7469746C653E0D0A3C6C66
:10134000696E6B2072656C3D227374796C6573688D
:101350006565742220747970653D22746578742FF8
:10136000637373222020687265663D227374796C02
:1013700065732E637373223E3C2F686561643E3C47
:10138000626F64793E3C68313E415652206D696E11
:101390006920576562736572766572203A205374CE
:1013A000617475733C2F68313E0D0A3C6469762088
:1013B00069643D226E6176223E3C612068726566FA
:1013C0003D22696E6465782E68746D223E486F6DAB
:1013D000653C2F613E3C6120687265663D227374F6
:1013E000617475732E68746D223E537461747573E5
:1013F0003C2F613E3C2F6469763E0D0A3C64697661
:101400002069643D226D61696E223E0D0A436F6D55
:1014100070696C6965727420616D20417072202062
:1014200033203230313420756D2031353A31333A42
:1014300033333C62723E3C62723E0D0A436F6D7004
:10144000696C69657274206D697420474343205646
:10145000657273696F6E20342E382E313C62723E95
:101460003C62723E0D0A4265737563686572207353
:1014700065697420537461727420646573205765C4
:101480006273657276657273202825564140303943
:10149000293C62723E3C62723E0D0A3C2F646976C2
:1014A0003E3C6469762069643D227461696C223E29
:1014B0003C6120687265663D22687474703A2F2F13
:1014C0007777772E756C7269636872616469672ECD
:1014D0006465223E7777772E756C726963687261F6
:1014E0006469672E64653C2F613E20556C726963A8
:1014F0006820526164696720323030383C2F64695B
:10150000763E0D0A3C2F626F64793E3C2F68746D05
:101510006C3E0D0A25454E44003C21444F4354592E
:1015200050452068746D6C205055424C4943202230
:101530002D2F2F5733432F2F4454442048544D4CC4
:1015400020342E3031205472616E736974696F6E6D
:10155000616C2F2F454E222022687474703A2F2F11
:101560007777772E77332E6F72672F54522F6874E8
:101570006D6C342F6C6F6F73652E647464223E0D36
:101580000A3C68746D6C3E3C686561643E0D0A3CC3
:101590006D65746120687474702D65717569763D30
:1015A00022636F6E74656E742D747970652220638A
:1015B0006F6E74656E743D22746578742F68746DF7
:1015C0006C3B20636861727365743D49534F2D38DD
:1015D0003835392D31223E0D0A3C7469746C653EF4
:1015E000415652206D696E69205765627365727647
:1015F0006572203A20486F6D653C2F7469746C6584
:101600003E0D0A3C6C696E6B2072656C3D227374F2
:10161000796C6573686565742220747970653D2204
:10162000746578742F637373222020687265663D39
:10163000227374796C65732E637373223E3C2F683A
:101640006561643E3C626F64793E0D0A3C68313EE0
:10165000415652206D696E692057656273657276D6
:101660006572203A20486F6D653C2F68313E0D0A47
:101670003C6469762069643D226E6176223E3C615D
:1016800020687265663D22696E6465782E68746DA7
:10169000223E486F6D653C2F613E3C61206872655B
:1016A000663D227374617475732E68746D223E53A7
:1016B00074617475733C2F613E3C2F6469763E0DF6
:1016C0000A3C6469762069643D226D61696E223E40
:1016D0003C68323E476CFC636B77756E73636821C0
:1016E0003C2F68323E3C62723E0D0A3C696D6720B9
:1016F0007372633D2272616B65742E676966222086
:1017000077696474683D22393022206865696768AA
:10171000743D2239322220616C743D22223E3C62AB
:10172000723E3C62723E0D0A3C703E447520686118
:101730007374206573206765736368616666743AC5
:101740002044657220576562736572766572206CFD
:10175000E4756674213C2F703E3C62723E3C6872B8
:101760003E3C62723E0D0A3C646976207374796C6B
:10177000653D2277696474683A32303070783B6D29
:10178000617267696E3A2030206175746F3B223E4A
:101790000D0A3C646976207374796C653D22666C31
:1017A0006F61743A6C6566743B77696474683A314A
:1017B00030307078223E0D0A3C666F726D206D6588
:1017C00074686F643D22706F737422206163746962
:1017D0006F6E3D22696E6465782E68746D223E0DD1
:1017E0000A3C696E707574206E616D653D224F55BF
:1017F000542220747970653D22636865636B626F63
:1018000078222076616C75653D2241222025504F5B
:10181000525441303E506F727420412050696E2006
:10182000303C62723E0D0A3C696E707574206E61C8
:101830006D653D224F55542220747970653D2263B9
:101840006865636B626F78222076616C75653D22F6
:1018500042222025504F525441313E506F72742025
:10186000412050696E20313C62723E0D0A3C696E27
:10187000707574206E616D653D224F555422207441
:101880007970653D22636865636B626F78222076AC
:10189000616C75653D2243222025504F52544132E0
:1018A0003E506F727420412050696E20323C62724B
:1018B0003E3C62723E0D0A3C696E707574206E612A
:1018C0006D653D22535542222076616C75653D223F
:1018D00053656E64656E2220747970653D22737560
:1018E000626D6974223E0D0A3C2F666F726D3E3C3C
:1018F0002F6469763E0D0A3C646976207374796CB6
:10190000653D22666C6F61743A6C6566743B207746
:10191000696474683A3130307078223E0D0A3C694F
:101920006D67207372633D222550494E4437222053
:10193000616C743D22223E20506F7274204420500E
:10194000696E20373C62723E3C696D67207372633A
:101950003D222550494E44362220616C743D22229E
:101960003E20506F727420442050696E20363C62D5
:10197000723E3C696D67207372633D222550494E6B
:1019800044352220616C743D22223E20506F7274D7
:1019900020442050696E20353C62723E3C2F6469C1
:1019A000763E3C2F6469763E0D0A3C64697620637E
:1019B0006C6173733D22636C656172223E3C2F64DF
:1019C00069763E0D0A3C62723E3C68723E3C627231
:1019D0003E0D0A3C7461626C6520626F72646572D0
:1019E0003D22302220636C6173733D2274656D70FB
:1019F00054626C2220616C69676E3D2263656E746F
:101A00006572222077696474683D223430307078C2
:101A10003B223E0D0A3C74723E0D0A3C74683E4502
:101A2000696E67616E673C2F74683E0D0A3C74688E
:101A30003E42616C6B656E3C2F74683E0D0A3C74CF
:101A4000683E54656D70657261747572205BB04359
:101A50005D3C2F74683E0D0A3C2F74723E3C7472DC
:101A60003E0D0A3C74643E41442D4B616E616C3006
:101A70003C2F74643E0D0A3C7464207374796C6569
:101A80003D22746578742D616C69676E3A6C656689
:101A900074223E3C696D67207372633D22696E64F7
:101AA00065782D4461746569656E2F62616C6B6544
:101AB0002E6769662220616C743D22222068656968
:101AC0006768743D223130222077696474683D2252
:101AD000255641403030223E3C2F74643E0D0A3C76
:101AE00074643E2556414030303C2F74643E0D0AEC
:101AF0003C2F74723E3C74723E0D0A3C74643E414D
:101B0000442D4B616E616C313C2F74643E0D0A3C78
:101B10007464207374796C653D22746578742D61EA
:101B20006C69676E3A6C656674223E3C696D67202D
:101B30007372633D22696E6465782D4461746569D2
:101B4000656E2F62616C6B652E6769662220616C21
:101B5000743D2222206865696768743D2231302215
:101B60002077696474683D22255641403031223E19
:101B70003C2F74643E0D0A3C74643E25564140304F
:101B8000313C2F74643E0D0A3C2F74723E3C7472DB
:101B90003E0D0A3C74643E41442D4B616E616C32D3
:101BA0003C2F74643E0D0A3C7464207374796C6538
:101BB0003D22746578742D616C69676E3A6C656658
:101BC00074223E3C696D67207372633D22696E64C6
:101BD00065782D4461746569656E2F62616C6B6513
:101BE0002E6769662220616C743D22222068656937
:101BF0006768743D223130222077696474683D2221
:101C0000255641403032223E3C2F74643E0D0A3C42
:101C100074643E2556414030323C2F74643E0D0AB8
:101C20003C2F74723E3C74723E0D0A3C74643E411B
:101C3000442D4B616E616C333C2F74643E0D0A3C45
:101C40007464207374796C653D22746578742D61B9
:101C50006C69676E3A6C656674223E3C696D6720FC
:101C60007372633D22696E6465782D4461746569A1
:101C7000656E2F62616C6B652E6769662220616CF0
:101C8000743D2222206865696768743D22313022E4
:101C90002077696474683D22255641403033223EE6
:101CA0003C2F74643E0D0A3C74643E25564140301E
:101CB000333C2F74643E0D0A3C2F74723E0D0A3C77
:101CC0002F7461626C653E0D0A3C2F6469763E3C60
:101CD0006469762069643D227461696C223E3C61CE
:101CE00020687265663D22687474703A2F2F77778A
:101CF000772E756C7269636872616469672E6465BA
:101D0000223E7777772E756C7269636872616469B9
:101D1000672E64653C2F613E20556C7269636820B4
:101D2000526164696720323030383C2F6469763EF6
:101D30000D0A3C2F626F64793E3C2F68746D6C3ED7
:101D400025454E440047657420504F4E473A2025A4
:101D5000692E25692E25692E25690D0A00455252E6
:101D60004F520D0A0D0A0052656164790D0A0D0A81
:101D7000000D0A0047572020202531692E253169A2
:101D80002E2531692E2531690D0A004D41534B2016
:101D90002531692E2531692E2531692E2531690DB0
:101DA0000A000D0A49502020202531692E2531696D
:101DB0002E2531692E2531690D0A00436F6D70693A
:101DC0006C69657274206D697420474343205665C1
:101DD0007273696F6E20342E382E310D0A00436FF6
:101DE0006D70696C6965727420616D20417072203C
:101DF0002033203230313420756D2031353A313383
:101E00003A33330D0A000A0D53797374656D20520D
:101E1000656164790A0D000400051A06FF071F08B2
:101E20000009000AFF0B19C100C00DC233CAEECB76
:101E300005C415C612E400E520E218E3B1E015E19F
:101E40006F7500FFFF000100140742FFFF5374612C
:101E500072742054656C6E65742053657276657279
:101E60003A0D0A0011241FBECFE5D8E0DEBFCDBF7A
:101E700011E0A0E6B0E0EAE7FFE502C005900D92B0
:101E8000A639B107D9F725E0A6E9B1E001C01D9256
:101E9000A13EB207E1F70E945D1A0C94BB2F0C948F
:101EA00000000F931F93CF93DF93FC018081882361
:101EB00009F473C086958695DB018C93408143704D
:101EC0004295407F11964C938181811118C012C0B8
:101ED00046954695E9014A83EC0149814370429554
:101EE000407FE9014B83EC018A811496339681117E
:101EF0000AC001C08B010E5F1F4F92E02CC0DB01B6
:101F0000129632968B0182958F70480FE8014983B3
:101F1000CF019F0121503109E90148814F70440FE1
:101F2000440F9D014C935081511104C00D5F1F4F10
:101F300091E011C05295569556955370450F4C93AC
:101F40000C5F1F4F40814F7311964C931197418145
:101F50004111BECF90E0F80110820617170761F01B
:101F6000DB01EC91EF73F0E0EC5AFF4FE491ED935D
:101F7000A017B107B1F7B8018FEF890F992351F07E
:101F8000982FFB012DE321939150E8F790E0019603
:101F9000680F791FDB011C9203C0EB011882FACF96
:101FA000DF91CF911F910F910895E0E0F0E0099447
:101FB00008950895089580916F031F928F938091E3
:101FC0006E031F928F9380916D031F928F93809168
:101FD0006C031F928F9380916B031F928F9380915C
:101FE0006A031F928F9387E691E09F938F930E94DD
:101FF000622B8DB79EB70E960FB6F8949EBF0FBE9C
:102000008DBF089580919A011F928F938FE491E084
:102010009F938F930E94622B0F900F900F900F90C1
:1020200008952F923F924F925F926F927F928F927C
:102030009F92AF92BF92CF92DF92EF92FF920F9357
:102040001F93CF93DF9300E010E00F2EF2E4AF2E4A
:10205000F1E0BF2EF02D0F2EFDE3CF2EF1E0DF2EAD
:10206000F02D0F2EF8E3EF2EF1E0FF2EF02D0F2EC6
:10207000F3E36F2EF1E07F2EF02D0F2EFEE24F2EB8
:10208000F1E05F2EF02D0F2EF9E22F2EF1E03F2E22
:10209000F02D4801880C991CE401C00FD11FCC0F12
:1020A000DD1FCC0FDD1FC45DDD4F88811F928F9334
:1020B0001F930F93BF92AF920E94622B89811F9250
:1020C0008F93DF92CF920E94622B8A811F928F930F
:1020D000FF92EF920E94622B8B811F928F937F92CF
:1020E0006F920E94622B8C811F928F935F924F920E
:1020F0000E94622B8D811F928F933F922F920E949C
:10210000622B8E819F81A885B9859927AA27BB2735
:10211000BF93AF939F938F93A0E2B1E0BF93AF9330
:102120000E94622B8E819F81A885B9852DB73EB70D
:10213000205E3F4F0FB6F8943EBF0FBE2DBF892FD4
:1021400090E0A0E0B0E0BF93AF939F938F93ABE19B
:10215000B1E0BF93AF930E94622B8E819F81A885CF
:10216000B9858A2F90E0A0E0B0E0BF93AF939F9332
:102170008F93A6E1B1E0BF93AF930E94622B8E8153
:102180009F81A885B9858B2F9927AA27BB27BF9345
:10219000AF939F938F93A1E1B1E0BF93AF930E9460
:1021A000622B8A859B859F938F93A4E0B1E0BF93B8
:1021B000AF930E94622B0F5F1F4F8DB79EB746965D
:1021C0000FB6F8949EBF0FBE8DBF0530110509F004
:1021D00060CFDF91CF911F910F91FF90EF90DF9033
:1021E000CF90BF90AF909F908F907F906F905F90B7
:1021F0004F903F902F9008952F923F924F925F9271
:102200006F927F928F929F92AF92BF92CF92DF9206
:10221000EF92FF920F931F93CF93DF9300E010E0B4
:102220000F2EF0E0AF2EF1E0BF2EF02D0F2EF7EFC6
:10223000CF2EF0E0DF2EF02D0F2EF2EFEF2EF0E09C
:10224000FF2EF02D0F2EFDEE8F2EF0E09F2EF02DA5
:102250000F2EF8EE6F2EF0E07F2EF02D0F2EFDEDFD
:102260004F2EF0E05F2EF02D0F2EF0ED2F2EF0E030
:102270003F2EF02D1F930F93BF92AF920E94622BBF
:1022800026E1209FE001219FD00D1124C258DD4F8F
:1022900088819981AA81BB819927AA27BB27BF93EF
:1022A000AF939F938F93DF92CF920E94622B88818E
:1022B0009981AA81BB81892F90E0A0E0B0E0BF9313
:1022C000AF939F938F93FF92EF920E94622B88812E
:1022D0009981AA81BB818A2F90E0A0E0B0E0BF93F2
:1022E000AF939F938F939F928F920E94622B8881CE
:1022F0009981AA81BB818B2F9927AA27BB27BF93DE
:10230000AF939F938F937F926F920E94622B8C81E9
:102310009D812C813D81232F3327982F8827822B65
:10232000932B9F938F935F924F920E94622B8B8986
:102330002DB73EB7205E3F4F0FB6F8943EBF0FBE9D
:102340002DBF1F928F933F922F920E94622B0F5F9F
:102350001F4F0F900F900F900F900530110509F04F
:1023600089CFDF91CF911F910F91FF90EF90DF9078
:10237000CF90BF90AF909F908F907F906F905F9025
:102380004F903F902F900895E9E6F2E0A081B1814F
:1023900080916B0290916C02AA0FBB1FAB55BF4F8F
:1023A0008D939C932081318180819181F901EE0F81
:1023B000FF1FEB55FF4F21812F9320812F939F9378
:1023C0008F938FEA90E09F938F930E94622B0F90E0
:1023D0000F900F900F900F900F9008954F925F9273
:1023E0006F927F928F929F92AF92BF92CF92DF9225
:1023F000EF92FF928090040390900503A090060353
:10240000B0900703409004035090050360900603CA
:102410007090070360910403709105038091060397
:10242000909107030F2EFCE3CF2ED12CE12CF12C41
:10243000F02DA70196010E94F22C1F926F93C30109
:10244000B201A70196010E94F22CCA01B901A701AD
:1024500096010E94F22C1F926F93C501B40120E1F6
:102460003EE040E050E00E94F22CCA01B90128E1B0
:1024700030E040E050E00E94F22C1F926F9389E917
:1024800090E09F938F930E94622B8DB79EB7089622
:102490000FB6F8949EBF0FBE8DBFFF90EF90DF90F8
:1024A000CF90BF90AF909F908F907F906F905F90F4
:1024B0004F900895FF920F931F93CF93DF93CAED30
:1024C000D1E006E910E0FE01F4901F92FF921F9305
:1024D0000F930E94622B21960F900F900F900F90F8
:1024E000F110F1CFDF91CF911F910F91FF900895DF
:1024F000EF92FF920F931F93CF93DF938091690226
:1025000090916A02892B09F446C0E0916902F0912A
:102510006A0200916B0210916C0240916D02509121
:102520006E0280916F029091700220E030E0322FB5
:10253000212F102F002760E070E0BA0155274427B3
:10254000400F511F621F731F4E0F5F1F611D711DD2
:10255000A0E0B0E0B82FAA27992788278A019B011D
:10256000080F191F2A1F3B1FC901B801C9ECD5E08C
:10257000088319832A833B830E94332868817981E9
:102580008A819B81EE24E394F12C01E010E020E0AD
:1025900048E00E942D22DF91CF911F910F91FF9073
:1025A000EF900895DF92EF92FF920F931F93CF93D6
:1025B000DF9300D0CDB7DEB79A83898369EE70E0F0
:1025C000CE0101960E94192F7C01D12C0DC0D3940D
:1025D000ED2DF0E0EE0FFF1FEE0FFF1FE05AFF4F53
:1025E00020813181232BC9F10D2D10E0F801EE0F70
:1025F000FF1FEE0FFF1FE05AFF4FB701808191814F
:102600000E949F2E892B19F7E12CF12C67EE70E0C8
:10261000CE0101960E94192F40E050E060E070E08A
:102620000E94142DF701EE0FFF1FE759FD4F718334
:1026300060838FEFE81AF80A8AE0E816F10431F7B0
:10264000F801EE0FFF1FEE0FFF1FE05AFF4F028051
:10265000F381E02D099581E001C080E00F900F909B
:10266000DF91CF911F910F91FF90EF90DF90089530
:102670000F931F93CF93DF938C0180916902909108
:102680006A02892BA1F0C0E0D0E0E199FECFFE0103
:10269000EE0FFF1FE759FD4F60817181CE01800F62
:1026A000911F0E94712F2196C430D10571F7DF91DF
:1026B000CF911F910F9108950F931F93CF93DF93A5
:1026C0008EE190E00E94381340EC58EA62E075E039
:1026D0008EE190E00E94B11DCFECD5E06883798354
:1026E0008A839B838091D2051F928F938091D1051D
:1026F0001F928F938091D0051F928F9388811F9294
:102700008F9381EC91E09F938F930E94622B809135
:10271000D7059091D805A091D905B091DA05AC0103
:10272000BD014095509560957095088119812A8169
:102730003B8180239123A223B323842B952BA62BAB
:10274000B72B8093DB059093DC05A093DD05B09358
:10275000DE058DB79EB70A960FB6F8949EBF0FBEE2
:102760008DBFDF91CF911F910F9108950F931F930C
:10277000CF93DF9382E290E00E9438134FEF5FEF38
:102780006FEF70E082E290E00E94B11DC7EDD5E0EE
:10279000688379838A839B838091DA051F928F9364
:1027A0008091D9051F928F938091D8051F928F93A6
:1027B00088811F928F9386EA91E09F938F930E9466
:1027C000622B88819981AA81BB81AC01BD014095B2
:1027D0005095609570950091CF051091D00520918E
:1027E000D1053091D20580239123A223B323842BDA
:1027F000952BA62BB72B8093DB059093DC05A0933C
:10280000DD05B093DE058DB79EB70A960FB6F89436
:102810009EBF0FBE8DBFDF91CF911F910F91089585
:1028200086E290E00E94381340EC58EA62E071E0E2
:1028300086E290E00E94B11DE3EDF5E060837183D4
:10284000828393838091D6051F928F938091D505C3
:102850001F928F938091D4051F928F9380811F9236
:102860008F9389E891E09F938F930E94622B8DB79D
:102870009EB70A960FB6F8949EBF0FBE8DBF0895FF
:1028800068E073E08CE291E00E94510F65EE79E11F
:1028900080E590E00E94B71E08959DE0899FF001B9
:1028A0001124DF01A25DBC4F8C91817EEA5DFC4F5B
:1028B000138212821182108283608F7D8C9388E054
:1028C00093E0958384838EEB90E09287818789EBF8
:1028D00090E09487838780EA90E0978386830895C9
:1028E0002F923F924F925F926F927F928F929F9220
:1028F000AF92BF92CF92DF92EF92FF920F931F930E
:10290000CF93DF93982E80919E03807F682E712C49
:102910007594679475946794530122E2A20EB11CDA
:102920006DE873E0C50180599C4F0E94D72E892B1A
:1029300049F03DE0939EF0011124E25DFC4F80815F
:1029400080628083092D10E04DE0949EF0011124F7
:10295000EA5DFC4F0680F781E02D8081882309F431
:1029600067C0C501E0908003F12CFE2CEE2420917D
:102970008103E20EF11CA2E2EA0EF11CE618F70850
:10298000AE14BF0408F054C0E501C059DC4F2DE07F
:10299000209FF001219FF00D1124BF01625D7C4F4B
:1029A000EA5DFC4FAF014C5F5F4F0F2EF8E04F2EFA
:1029B000F3E05F2EF02D36960F2EF0EACF2EF0E0EA
:1029C000DF2EF02DDB012C9120FD1CC08880DA0168
:1029D0002D903C90119791012F5F3F4F2D933C9389
:1029E000D1012C91821619F0DA014D925C92DA0134
:1029F0002D913C91D9012C91211104C0DB012C9126
:102A000021602C938990A081B1819D012F5F3F4F60
:102A1000318320832C91821611F0D182C082A08153
:102A2000B1812C91222321F001968E159F0550F241
:102A30008DE0809FF001819FF00D1124E25DFC4F3D
:102A4000808180FF91C08DE0809FF001819FF00D1B
:102A50001124E25DFC4F808185FF86C0C501409155
:102A6000800350E0542F442720918103420F511DD1
:102A70004E5D5F4FEA01C619D7093E01AC16BD068F
:102A800008F072C0950120593C4F6DE0609FD00165
:102A9000619FB00D1124AA5DBC4FFD0139966EEB0C
:102AA00070E01B960F2EF9EBCF2EF0E0DF2EF02D0D
:102AB000E901B9909E01C081D1817E014FEFE41AF6
:102AC000F40AF182E082C881BC1611F07183608340
:102AD000C081D181C881C1111BC0E9014881423444
:102AE00051F0433471F0413489F4C0919601CF5FC5
:102AF000C09396010BC0C0919601CE5FC093960122
:102B000005C0C0919601CC5FC0939601718360832C
:102B1000CD91DC9111977E014FEFE41AF40A1196E2
:102B2000FC92EE92C881BC1619F01196DC92CE92FE
:102B3000CD91DC911197C881C11111C08DE0809FAA
:102B4000F001819FF00D1124E25DFC4F80818F7DAB
:102B50008083809196018BBB1092960105C00196EF
:102B60008615970508F4A4CF8DE0809FF001819F22
:102B7000F00D1124EA5DFC4F82819381892B09F0CD
:102B8000D6C0E0919E03E07FF0E0F595E795F595DE
:102B9000E795CF0187962091800330E0322F2227DE
:102BA00040918103240F311D2E5D3F4F2E1B3F0BA3
:102BB00082179307A8F4DC01A059BC4F4C914D300B
:102BC00049F403C041914D3039F4FC01E059FC4F08
:102BD000108206C0E856FC4F01968217930790F3C7
:102BE0008DE0809FF001819FF00D1124EA5DFC4F84
:102BF00013821282C091C300D091C400209709F4BF
:102C000096C080919E03807F90E0959587959595DD
:102C10008795DC01AE56BC4F6D01E12CF12CB12C37
:102C2000BE01C6010E94B22E892B09F471C067E370
:102C300071E0CE010E94B22E892B69F08DE0809F59
:102C4000F001819FF00D1124E25DFC4F8081817FB6
:102C50008860808347C06CE771E0CE010E94B22E8D
:102C6000892B69F08DE0809FF001819FF00D112488
:102C7000E25DFC4F8081817F8A60808333C06DE597
:102C800071E0CE010E94B22E892B69F08DE0809F09
:102C9000F001819FF00D1124E25DFC4F8081817F66
:102CA000826080831FC068E671E0CE010E94B22E70
:102CB000892B69F08DE0809FF001819FF00D112438
:102CC000E25DFC4F8081817F866080830BC08DE058
:102CD000809FF001819FF00D1124E25DFC4F808107
:102CE000817F80838DE0809FF001819FF00D112412
:102CF000EA5DFC4FD701AA0FBB1FAA0FBB1FAD5344
:102D0000BF4F12968D919C911397938382830FC02E
:102D1000B394EB2CF12CF701EE0FFF1FEE0FFF1F0A
:102D2000ED53FF4FC081D181209709F079CF8DE01D
:102D3000809FF001819FF00D1124EA5DFC4F068019
:102D4000F781E02D808181110BC08DE0809FF00123
:102D5000819FF00D1124E25DFC4F808185FF14C03E
:102D600086E1809FE001819FD00D1124C258DD4F84
:102D700080E1888B692D80E090E00E94EA2381E069
:102D800090E09A8B898B37C18DE0809FF001819F05
:102D9000F00D1124E25DFC4F808180FD3BC086E197
:102DA000809FF001819FF00D1124E258FD4F808932
:102DB00083FF30C08DE0809FF001819FF00D1124D2
:102DC000EA5DFC4F82E993E09383828380919E03C6
:102DD000807F90E0959587959595879541E850E09F
:102DE0006FEE74E08E569C4F0E946E2E86E1809F9F
:102DF000E001819FD00D1124C258DD4F88E1888BFE
:102E0000692D81E890E00E94EA2382E090E09A8BAD
:102E1000898BF1C08DE0809FF001819FF00D11241E
:102E2000EA5DFC4F82819381892BE1F4E7EBF0E0CE
:102E3000808191810196918380838DE0809FF00154
:102E4000819FF00D1124DF01AA5DBC4F89E195E15E
:102E500013969C938E931297E25DFC4F8081817F45
:102E60008260808386E1809FF001819FF00D1124B4
:102E7000E258FD4F82E090E0928B818B8DE0809F45
:102E8000F001819FF00D1124E25DFC4F8081869559
:102E9000877090E08330910509F48EC02CF4009780
:102EA00059F0019749F1A7C08430910509F444C055
:102EB000059709F461C09FC080919E03807F90E0D8
:102EC000959587959595879548E550E069EC75E06F
:102ED0008E569C4F0E946E2E86E1809FF001819F4E
:102EE000F00D1124E258FD4F88E1808B692D88E5B3
:102EF00090E00E94EA237FC080919E03807F90E053
:102F0000959587959595879547E550E061E775E03C
:102F10008E569C4F0E946E2E86E1809FF001819F0D
:102F2000F00D1124E258FD4F88E1808B692D87E573
:102F300090E00E94EA235FC080919E03807F90E032
:102F4000959587959595879548E550E066E974E0F5
:102F50008E569C4F0E946E2E86E1809FF001819FCD
:102F6000F00D1124E258FD4F88E1808B692D88E532
:102F700090E00E94EA233FC080919E03807F90E012
:102F8000959587959595879547E750E06EE174E0B4
:102F90008E569C4F0E946E2E86E1809FF001819F8D
:102FA000F00D1124E258FD4F88E1808B692D87E7F1
:102FB00090E00E94EA231FC080919E03807F90E0F2
:102FC000959587959595879546E750E067EA73E074
:102FD0008E569C4F0E946E2E86E1809FF001819F4D
:102FE000F00D1124E258FD4F88E1808B692D86E7B2
:102FF00090E00E94EA23DF91CF911F910F91FF9003
:10300000EF90DF90CF90BF90AF909F908F907F9088
:103010006F905F904F903F902F9008954F925F92E6
:103020006F927F928F929F92AF92BF92CF92DF92D8
:10303000EF92FF920F931F93CF93DF93CDB7DEB73D
:103040002A970FB6F894DEBF0FBECDBF582E682E5C
:10305000712C2DE0829FF0011124E25DFC4F8081F4
:1030600080FD0CC08DE0869DF001879DF00D112440
:10307000EA5DFC4F82E993E09383828386E1869D3B
:10308000F001879DF00D1124E258FD4F80898111D8
:103090000CC08DE0869DF001879DF00D1124EA5D46
:1030A000FC4F80819181938382838DE0869DF00126
:1030B000879DF00D1124EA5DFC4F828193819183FD
:1030C000808300E010E02DE0269DC001279D900D3B
:1030D0001124FC01E85DFC4F7F0188248394912C2E
:1030E000412CF701C080D180B6016F5F7F4F7183A3
:1030F0006083F60184915801F6E3AF0EB11CF5012F
:10310000E059FC4F8083853209F033C143E050E041
:103110008CE391E00E947E2E892BB9F5F60134965E
:10312000E491EE0FE0568E2F880F880F8E0FF60178
:103130003596E491E0538E0FE82FF0E0EE0FFF1F7D
:10314000EB55FF4F4AE0BE016F5F7F4F8081918159
:103150000E943C2F6AE070E0CE0101960E940E2F83
:103160006C01DD24A601BE016F5F7F4FC501805950
:103170009C4F0E94962E015011090C0D1D1DF70148
:1031800080819181059691838083F701C080D180F1
:1031900044E050E0B60180E491E00E947E2E892B4D
:1031A00009F061C0F6013596849120ED280F319722
:1031B0009491923491F018F4913431F029C0933401
:1031C000A9F09434E1F024C03BB3C40102C0880FDD
:1031D000991F2A95E2F783231CC038B3C40102C0AB
:1031E000880F991F2A95E2F7832313C035B3C401D2
:1031F00002C0880F991F2A95E2F783230AC032B3D1
:10320000C40102C0880F991F2A95E2F7832301C0E9
:10321000842D882339F065E873E0CE0101960E9481
:10322000772E06C063E873E0CE0101960E94772EE8
:103230006AE070E0CE0101960E940E2F6C01DD2441
:10324000A601BE016F5F7F4FC8018A559C4F0E9447
:10325000962E015011090C0D1D1DF70180819181E1
:10326000069691838083F701C080D18043E050E0CF
:10327000B60185E491E00E947E2E892B09F061C0A1
:10328000F6013496849120ED280F31979491923471
:1032900091F018F4913431F029C09334A9F09434AA
:1032A000E1F024C039B3C40102C0880F991F2A95E8
:1032B000E2F783231CC036B3C40102C0880F991FF4
:1032C0002A95E2F7832313C033B3C40102C0880FE9
:1032D000991F2A95E2F783230AC030B3C40102C0C4
:1032E000880F991F2A95E2F7832301C0842D882334
:1032F00039F069E773E0CE0101960E94772E06C08F
:103300006EE673E0CE0101960E94772E6AE070E0CF
:10331000CE0101960E940E2F6C01DD24A601BE0194
:103320006F5F7F4FC8018A559C4F0E94962E0150B7
:1033300011090C0D1D1DF701808191810596918366
:103340008083F7016081718143E050E089E491E07E
:103350000E947E2E892B69F486E1869DF001879D6F
:10336000F00D1124E258FD4F8DEF9FEF928B818B72
:1033700007C00F5F1F4F0C38F1E01F0708F4B1CEF4
:1033800086E1869DF001879DF00D1124E258FD4FE6
:1033900088E1808B652DC8010E94EA232A960FB62A
:1033A000F894DEBF0FBECDBFDF91CF911F910F917B
:1033B000FF90EF90DF90CF90BF90AF909F908F9055
:1033C0007F906F905F904F9008951F93CF93DF93FE
:1033D000182FC82FD0E026E1829FF0011124E25877
:1033E000FD4F808980FD65C086E18C9FF0018D9F37
:1033F000F00D1124E258FD4F218932892130310529
:1034000019F4812F0E944D1486E18C9FF0018D9F4D
:10341000F00D1124E258FD4F218932892330310506
:1034200020F4812F0E94701444C086E18C9FF0012B
:103430008D9FF00D1124E258FD4F818992890397E9
:10344000E0F086E18C9FF0018D9FF00D1124E25891
:10345000FD4F818992898E3F9F4F78F486E18C9F42
:10346000F0018D9FF00D1124E258FD4F80898031CD
:1034700021F4812F0E940E181CC086E18C9FF00160
:103480008D9FF00D1124E258FD4F818992898E3F66
:103490009F4F78F086E18C9FF0018D9FF00D1124F5
:1034A000E258FD4F8EEF9FEF928B818B812F0E9410
:1034B000A924DF91CF911F91089587E08ABB86E010
:1034C00084BB11BA60E875E280E090E00E94272B8F
:1034D00086E09EE19F938F930E94622B8EED9DE18B
:1034E0009F938F930E94622B8BEB9DE19F938F9311
:1034F0000E94622B0F900F900F900F900F900F90E3
:1035000080E492E4AFE0B0E000000197A109B109C6
:103510000097A105B105C1F70E94FB1D0E94401450
:103520000E940D298BB780628BBF78948091D20561
:103530001F928F938091D1051F928F938091D00518
:103540001F928F938091CF051F928F9382EA9DE106
:103550009F938F930E94622B8091DA051F928F9325
:103560008091D9051F928F938091D8051F928F93D8
:103570008091D7051F928F938BE89DE19F938F9346
:103580000E94622B8091D6051F928F938091D50562
:103590001F928F938091D4051F928F938091D305B2
:1035A0001F928F9384E79DE19F938F930E94622BDC
:1035B0008DB79EB74E960FB6F8949EBF0FBE8DBFC7
:1035C00001E71DE10F2EFDE5CF2EFDE1DF2EF02DF1
:1035D0000F2EF7E6EF2EFDE1FF2EF02DCEECD5E01D
:1035E0000F2EFCECAF2EF5E0BF2EF02D0F2EFBECD6
:1035F0008F2EF5E09F2EF02D0F2EFAEC6F2EF5E0BA
:103600007F2EF02D0F2EF9EC4F2EF5E05F2EF02DD2
:103610000F2EF5E42F2EFDE13F2EF02D0E940828FD
:103620008091C70180FF1EC01F930F930E94622BE1
:1036300088EC91E00E94D2120F900F90882339F00D
:10364000FF92EF920E94622B0F900F9006C0DF92C4
:10365000CF920E94622B0F900F908091C7018E7FB6
:103660008093C7010E94142988818823B9F2F5014B
:1036700080811F928F93F40180811F928F93F301B9
:1036800080811F928F93F20180811F928F933F92CE
:103690002F920E94622B18828DB79EB70A960FB6A2
:1036A000F8949EBF0FBE8DBFB9CF019728F00000E0
:1036B000000000000000F9CF0895C3988F71806A60
:1036C0008FB9779BFECF6FB9779BFECFC39A0895D2
:1036D000C3988F7180688FB9779BFECF6FB9779B46
:1036E000FECFC39A0895FF920F931F93CF93DF935A
:1036F000182F082F0F710A31E8F4C82FC076D0E0D8
:10370000D595C795D595C795D595C795D595C795A1
:10371000D595C79580919901C81761F063E08FE155
:103720000E945D1BCC2321F06C2F8FE10E94681B4F
:10373000C0939901C3980FB9779BFECF1FB8779BB1
:10374000FECF11231CF41FB8779BFECF8FB1C39A15
:10375000DF91CF911F910F91FF900895FF920F93EA
:103760001F93CF93DF93062F182F1F711A31E8F4A0
:103770008076C82FD0E0D595C795D595C795D595B6
:10378000C795D595C795D595C79580919901C817C7
:1037900061F063E08FE10E945D1BCC2321F06C2F70
:1037A0008FE10E94681BC0939901C39810641FB9F0
:1037B000779BFECF0FB9779BFECFC39ADF91CF9156
:1037C0001F910F91FF900895FC01C3988AE38FB970
:1037D000779BFECF6115710551F06E0F7F1F1FB8EB
:1037E000779BFECF8FB18193E617F707C1F7C39A96
:1037F0000895C3982AE72FB9779BFECF611571050D
:1038000051F0FC01860F971F21912FB9779BFECFB6
:10381000E817F907C9F7C39A0895CF92DF92EF929C
:10382000FF920F931F93CF93DF931F92CDB7DEB715
:103830007C016B01198204E610E08FE10E94731B8A
:1038400083FF09C088EE93E00E94551B01501109C7
:103850000115110591F78FE10E94731B83FF08C0CA
:1038600060E88FE10E94681B60E88FE10E945D1BA9
:1038700060E082E00E94AE1B6AE183E00E94AE1B22
:103880006E2D86E00E94AE1BC701965E692F87E011
:103890000E94AE1B61E070E0CE0101960E94F91B10
:1038A000B701C6010E94F91B68E08CE10E945D1B14
:1038B00068E08FE10E94681B0F90DF91CF911F910C
:1038C0000F91FF90EF90DF90CF9008950F931F938B
:1038D000CF93DF93BB9AC39A87B3806A87BBC79A9B
:1038E000BE98BC9A80E58DB981E08EB980E197E2FF
:1038F0000E94551BC3988FEF8FB9779BFECFC39A59
:1039000088EE93E00E94551B8DE10E94731B80FF9F
:10391000FBCF82E70E94731B80939A0110926A0387
:1039200080E280936B0388E180936C0381EB80934A
:103930006D0385E180936E038FE680936F03C0E093
:10394000D0E0FE01E95EF14E84912296FE01EA5E2E
:10395000F14E64918F3F11F46F3F19F00E94AE1B3E
:10396000F0CFC95ED14EFE016491319604916F3F54
:1039700011F40F3FE9F010E0102F0027FE013296FE
:10398000E4910E2B84ED0E94AE1B602F86ED0E9409
:10399000AE1B612F87ED0E94AE1B8AE090E00E9473
:1039A000551B8AEE0E94731B80FDFBCF2396DBCF55
:1039B000109298011092970160EC8BE10E94AE1B6F
:1039C00064E08FE10E94681BDF91CF911F910F91FE
:1039D0000895CF92DF92EF92FF920F931F93CF93B0
:1039E000DF9300D000D000D0CDB7DEB77C016B01F3
:1039F00089E30E94731B882309F46DC060919701CD
:103A00007091980180E00E94AE1B80919701909187
:103A10009801692F81E00E94AE1B66E070E0CE0144
:103A200001960E94E41B898190E090939801809315
:103A3000970180919701909198012A81922B909300
:103A40009801809397010B818C8110E0182B8D8158
:103A50002E8190E0922B87FF05C099231CF0E01681
:103A6000F10610F40E94661C04501109E016F106DC
:103A700008F48701B801C6010E94E41B80919701F8
:103A800090919801019781159A41B0F48091970126
:103A900090919801609197017091980161508CE02C
:103AA0000E94AE1B80919701909198010197692F18
:103AB0008DE00E94AE1B08C06FEF8CE00E94AE1B31
:103AC00069E18DE00E94AE1B60E48EE10E94681BFC
:103AD000802F912F02C080E090E026960FB6F894D8
:103AE000DEBF0FBECDBFDF91CF911F910F91FF9031
:103AF000EF90DF90CF900895CF92DF92EF92FF92F8
:103B00000F931F93F62EEE24DD24CC24092F1127CA
:103B1000222733270C0D1D1D2E1D3F1D6B017C011F
:103B2000CC24DD24FF24CD2CDE2CEF2CFF240C0D27
:103B30001D1D2E1D3F1DDC01CB018827AA27BB2799
:103B4000BA2FA92F982F8827BC01CD01600F711FB4
:103B5000821F931F1F910F91FF90EF90DF90CF90E6
:103B600008958F929F92AF92BF92CF92DF92EF9281
:103B7000FF920F931F93CF93DF9300D000D0CDB768
:103B8000DEB7842E952EA62EB72E8E010F5F1F4F07
:103B90006E0125E0C20ED11C7C01E01AF10AE19908
:103BA000FECFC701800F911F0E94692FF8018193FA
:103BB0008F01EC15FD0599F769817A818B819C81D4
:103BC0006F3FFFEF7F078F079F0721F4682D792D47
:103BD0008A2D9B2D0F900F900F900F90DF91CF911A
:103BE0001F910F91FF90EF90DF90CF90BF90AF901B
:103BF0009F908F9008950F931F93CF93DF930E9410
:103C0000DB2A40EC58EA62E075E08EE190E00E9429
:103C1000B11DCFECD5E0688379838A839B834FEF16
:103C20005FEF6FEF70E082E290E00E94B11D07ED60
:103C300015E0F801608371838283938340EC58EA36
:103C400062E071E086E290E00E94B11D6093D305CE
:103C50007093D4058093D5059093D605F8018081A3
:103C60009181A281B381AC01BD01409550956095D1
:103C70007095088119812A813B8180239123A22399
:103C8000B323842B952BA62BB72B8093DB05909326
:103C9000DC05A093DD05B093DE0510926A0380E297
:103CA00080936B0388E180936C0381EB80936D03B9
:103CB00085E180936E038FE680936F030E94661CFC
:103CC000DF91CF911F910F91089580E090E0FC016A
:103CD000EE0FFF1FE80FF91FEE0FFF1FEE0FFF1F84
:103CE000E45DFD4F22853385232B01F59C01220FD6
:103CF000331FF901E80FF91FEE0FFF1FEE0FFF1F33
:103D0000E45DFD4F108211821282138214821582AB
:103D1000280F391FF901EE0FFF1FEE0FFF1FE45DA3
:103D2000FD4F16821782108611861BC09C01220F40
:103D3000331FF901E80FF91FEE0FFF1FEE0FFF1FF2
:103D4000E45DFD4F4285538541505109280F391FCD
:103D5000F901EE0FFF1FEE0FFF1FE45DFD4F5387CC
:103D6000428701968530910509F0B1CF08952091E1
:103D7000B1013091B201232B91F0A0E0AF5F2A2F67
:103D800030E0F901EE0FFF1FEE0FFF1FEF54FE4F63
:103D900040815181452B91F7A53018F0089520E01E
:103DA00030E0F901EE0FFF1FEE0FFF1FEF54FE4F43
:103DB000918380837383628308951F920F920FB65D
:103DC0000F9211248F938091680281608093680222
:103DD00010920303109202038BB78F7D8BBF8F91DC
:103DE0000F900FBE0F901F901895CF92DF92EF9219
:103DF000FF920F931F93CF93DF9320917C03309119
:103E00007D0340918C0350918D0360918E037091DE
:103E10008F03C0908A03D0908B03E0908C03F090C6
:103E20008D03E0E0F0E0283086E0380709F052C06A
:103E3000EF01DF01AA0FBB1FAE0FBF1FAA0FBB1FF1
:103E4000AA0FBB1FA45DBD4F16968D919D910D903D
:103E5000BC91A02D84179507A607B70709F08FC05E
:103E600006E713E020E030E0BF01660F771F6E0F1A
:103E70007F1F660F771F660F771FF801F1908F0184
:103E8000AB01420F531F445D5D4FFA01F0822F5F7B
:103E90003F4F2630310589F79E01220F331FF9016C
:103EA000EC0FFD1FEE0FFF1FEE0FFF1FE45DFD4F38
:103EB00086839783A087B1872C0F3D1FF901EE0FF2
:103EC000FF1FEE0FFF1FE45DFD4F84E690E0938738
:103ED00082870AC12830310509F051C0EF01DF01A6
:103EE000AA0FBB1FAE0FBF1FAA0FBB1FAA0FBB1F7E
:103EF000A45DBD4F16968D919D910D90BC91A02D06
:103F00008C159D05AE05BF05D1F506E713E020E051
:103F100030E0BF01660F771F6E0F7F1F660F771FA0
:103F2000660F771FF801F1908F01AB01420F531F0D
:103F3000445D5D4FFA01F0822F5F3F4F263031051F
:103F400089F79E01220F331FF901EC0FFD1FEE0FC1
:103F5000FF1FEE0FFF1FE45DFD4F86839783A08751
:103F6000B1872C0F3D1FF901EE0FFF1FEE0FFF1F52
:103F7000E45DFD4F84E690E093878287B5C031967B
:103F8000E530F10509F04FCF809132029091330274
:103F9000A0913402B0913502892B8A2B8B2BC1F072
:103FA00061E070E0AB01FB01EE0FFF1FE60FF71FB2
:103FB000EE0FFF1FEE0FFF1FE45DFD4F868197811F
:103FC000A085B185892B8A2B8B2B09F087C002C075
:103FD00040E050E02830F6E03F07F1F5E6E7F3E097
:103FE00080E090E09A01220F331F240F351F220F2B
:103FF000331F220F331F6191D901A80FB91FA45D90
:10400000BD4F6C93019686309105A9F780918C0382
:1040100090918D03A0918E03B0918F039A01220F8E
:10402000331FF901E40FF51FEE0FFF1FEE0FFF1F07
:10403000E45DFD4F86839783A087B187420F531FAE
:10404000FA01EE0FFF1FEE0FFF1FE45DFD4F84E648
:1040500090E09387828748C02830310509F044C03A
:10406000E6E7F3E080E090E09A01220F331F240F8F
:10407000351F220F331F220F331F6191D901A80F63
:10408000B91FA45DBD4F6C93019686309105A9F7C9
:1040900080918A0390918B03A0918C03B0918D0342
:1040A0009A01220F331FF901E40FF51FEE0FFF1FD6
:1040B000EE0FFF1FE45DFD4F86839783A087B187D6
:1040C000420F531FFA01EE0FFF1FEE0FFF1FE45DBB
:1040D000FD4F84E690E09387828706C06F5F7F4F35
:1040E0006530710509F05ECFDF91CF911F910F917F
:1040F000FF90EF90DF90CF9008950F931F93009162
:1041000032021091330220913402309135020617A9
:10411000170728073907E9F0E1E0F0E0DF01AA0F0F
:10412000BB1FAE0FBF1FAA0FBB1FAA0FBB1FA45DF3
:10413000BD4F16960D911D912D913C911997061723
:1041400017072807390739F03196E530F10531F7BF
:1041500004C080E003C08E2F01C085E01F910F9145
:1041600008950F931F93CF93DF938C01CB01BA0176
:104170000E947D20853021F1E801AAE6B3E00A5FC4
:104180001F4F20E030E090E0AC01440F551F840F3A
:10419000951FAC01440F551F440F551FCA01820FD4
:1041A000931F845D9D4FFC01808189938D91F8015F
:1041B00081938F012F5F3F4F2630310579F70EC075
:1041C000E801AAE6B3E0F801369680E793E03FEF16
:1041D00039932D912193A817B907D1F7DF91CF918A
:1041E0001F910F910895CF93DF9380917E0390915B
:1041F0007F038115914009F09AC0809180039091CE
:104200008103089709F093C080918203863009F0FA
:104210008EC080918303843009F089C04091960359
:104220005091970360919803709199038091CF0505
:104230009091D005A091D105B091D20548175907AA
:104240006A077B0709F073C080918403909185030E
:104250008115E1E09E0709F065C00E94F51ECCE8DB
:10426000D3E0488159816A817B8180E793E00E9495
:10427000B12088E096E090937D0380937C03688171
:1042800079818A819B810E947D20853020F5C0E95B
:10429000D3E0AAE6B3E066E873E020E030E090E027
:1042A000AC01440F551F840F951FAC01440F551FDF
:1042B000440F551FCA01820F931F845D9D4FFC015F
:1042C000808189938D91FB018193BF012F5F3F4FC7
:1042D0002630310579F780E092E090938503809352
:1042E0008403ECE8F3E080819181A281B381809323
:1042F000960390939703A0939803B09399038091AA
:10430000CF059091D005A091D105B091D2058083C1
:104310009183A283B38360E773E08CE390E00E9413
:104320000D1C05C08115924011F40E94F51EDF910D
:10433000CF9108951F93CF93DF9362307105D0F032
:10434000FC01DB01C081D0E0DC2FCC271181C10F43
:10435000D11D2C0F3D1F411D511D12973296A230C9
:10436000B10580F7FB013297EE7F32968E0F9F1FCB
:1043700061707727672B49F0FC01808190E0982FCE
:104380008827280F391F411D511DDA01C901AA27AD
:10439000BB2766277727480F591F6A1F7B1FDB0142
:1043A000CA01AA27BB27AB0166277727840F951F71
:1043B000A61FB71F80959095DF91CF911F9108950B
:1043C000CF92DF92EF92FF92CF93DF93EC016A01DD
:1043D0007B010E94B12088E090E09D878C878091CE
:1043E0009B0190919C01019690939C0180939B016D
:1043F00020E430E03D8B2C8B20E82E8B98278927FA
:1044000098279B8B8A8B85E48E871F86CE8EDF8EC6
:10441000E8A2F9A24091CF055091D0056091D10555
:104420007091D2054A8F5B8F6C8F7D8F198E188E9D
:1044300020E030E0A90164E170E0CE010E960E9418
:104440009A21982789279827998F888FDF91CF9174
:10445000FF90EF90DF90CF900895EF92FF920F932F
:104460001F93CF93DF934093920320939303F09293
:104470009703E0929603109399030093980304E93D
:1044800013E0F80111821082C0E8D3E020E034E5A7
:104490003983288321E020938703AB01BC0180E7A7
:1044A00093E00E94E021688179817627672776274B
:1044B00080917E038F70F4E08F9F60197109112441
:1044C00020E030E0A90182E993E00E949A21982738
:1044D00089279827F8019183808360E773E082E65B
:1044E00090E00E940D1CDF91CF911F910F91FF90E2
:1044F000EF900895CF92DF92EF92FF920F931F9368
:10450000CF93DF93FC01028D138D248D358DA0E0B8
:10451000B0E00F2EF6E1FF2EF02DCD01FA9EE00166
:10452000FB9ED00D1124C258DD4F488159816A810C
:104530007B81401751076207730709F06AC0FA9E32
:10454000E001FB9ED00D1124C258DD4F6C817D81AE
:1045500042A153A16417750709F05BC042A553A59A
:1045600064A575A526E1289FD001299FB00D1124CF
:10457000A258BD4F18964D935D936D937C931B97F6
:1045800046A157A160A571A51C964D935D936D93AF
:104590007C931F9727A550962C93509753962C9158
:1045A0002F3F59F026E1289FD001299FB00D1124FB
:1045B000A258BD4F23E053962C93C088D188DC24A9
:1045C000CD24DC2424E1C21AD10826A5207F30E0C6
:1045D0003595279535952795C21AD30AE12CF12CEC
:1045E00026E1289FE001299FD00D1124C258DD4FFC
:1045F0006C857D858E859F850E947C1D6C0D7D1D43
:104600008E1D9F1D0E947C1D6C877D878E879F87D6
:1046100073C01196A530B10509F07FCF40917E029D
:1046200050917F026091800270918102452B462B50
:10463000472BC1F081E090E00F2EF6E1FF2EF02D28
:10464000EC01F89ED001F99EB00D1124A258BD4F87
:104650004D915D916D917C91452B462B472B09F037
:1046600046C002C0C0E0D0E046E14C9FC0014D9F73
:10467000900D1124DC01A258BD4F0D931D932D9375
:104680003C93139722A133A115963C932E93149734
:1046900024A135A117963C932E93169742A553A5B6
:1046A00064A575A518964D935D936D937C931B97A8
:1046B00046A157A160A571A51C964D935D936D937E
:1046C0007C931F9727A550962C93509752961C9237
:1046D0001E92519723E053962C93539754961C9215
:1046E000FC01ED56FD4F80818E7F808305C00196D1
:1046F0008530910509F0A4CFDF91CF911F910F91E3
:10470000FF90EF90DF90CF9008950F931F93CF937A
:10471000DF93A0E0B0E0C6E1CA9FF001CB9FF00DAF
:104720001124E258FD4F0081118122813381061747
:1047300017072807390769F4CA9FF001CB9FF00DCE
:104740001124E258FD4F0480F581E02DE417F507B0
:1047500029F01196A530B105F9F602C08A2F01C0E3
:1047600085E0DF91CF911F910F91089580919D0178
:1047700090919E01009769F14091940350919503A7
:104780005427452754278417950799F060E06F5FF9
:10479000262F30E0F901EE0FFF1FEE0FFF1FE3564B
:1047A000FE4F808191810097A1F08417950779F7DA
:1047B00002C020E030E0892B61F0F901EE0FFF1F0D
:1047C000EE0FFF1FE356FE4F0280F381E02D80E0E5
:1047D00009950895CF92DF92EF92FF920F931F9366
:1047E000CF93DF93EC01E62EF12C86E1689F8001E8
:1047F000112402581D4FF8018681978190939303ED
:104800008093920384819581909395038093940380
:104810001092A5031092A40381E094EF9093A1035A
:104820008093A00380E580939E03648575858685CB
:1048300097850E947C1DF801208920939F03208981
:1048400021FF15C06F5F7F4F8F4F9F4F22E0209356
:10485000A60324E02093A70321E02093A80324EFDC
:104860002093A90320E620939E03C4E0D0E00E9499
:104870007C1D60939A0370939B0380939C03909399
:104880009D0386E18E9D80018F9D100D112402589D
:104890001D4FF80180859185A285B385809396038D
:1048A00090939703A0939803B09399030F2EF0E889
:1048B000CF2EF3E0DF2EF02DCE01889698278927A2
:1048C0009827F6019183808386E080938703F8011F
:1048D000408151816281738180E793E00E94E021F1
:1048E0000F2EF2EAEF2EF3E0FF2EF02DF7011182EA
:1048F0001082F60160817181762767277627685FCD
:104900007F4F80917E038F70F4E08F9F6019710953
:1049100011249B012250310940E050E08AE893E0E5
:104920000E949A21982789279827F70191838083ED
:1049300060E773E0CE01C6960E940D1CF801108A54
:10494000DF91CF911F910F91FF90EF90DF90CF906B
:10495000089596E1899FF0011124E258FD4F2FEF51
:104960003FEF328B218B91E1908B682F80E090E0BC
:104970000E94EA230895CF93DF93682F70E096E1B9
:10498000899FF0011124E258FD4F2681378132279B
:10499000232732274091B1015091B20142175307AA
:1049A000F9F0E5EBF1E021E030E096E1969FD001EF
:1049B000979FB00D1124AC57BD4FE9014D915C910B
:1049C0001197542745275427608171816417750713
:1049D00021F02F5F3F4F3496F0CF253018F00BC0F9
:1049E000C0E0D0E0CC0FDD1FCC0FDD1FCF54DE4F79
:1049F000EA81FB810995DF91CF910895863008F512
:104A000026E1829FC0011124FC01E258FD4F108273
:104A100011821282138215821482178216821086E6
:104A20001186128613861486158616861786108AB6
:104A3000128A118A138AFC01ED56FD4F80818E7F08
:104A400080830895EF92FF920F931F93CF93DF938C
:104A5000C0E0D0E016E103E00F2EF4E1FF2EF02DD0
:104A60009E011C9FF0011D9FF00D1124E258FD4F87
:104A70008389811138C01C9FF0011D9FF00D112406
:104A8000E258FD4F4081518162817381452B462B55
:104A9000472BE9F1129FF001139FF00D1124E2580A
:104AA000FD4F038B848991E0980F948B8630B8F08A
:104AB0008BB78F7D8BBF129FF001139FF00D1124D8
:104AC000E258FD4FF08A6C2F80E090E00E94EA23CC
:104AD0008BB780628BBF8C2F0E94FE2418C08C2F56
:104AE0000E94BB2414C01C9FF0011D9FF00D1124D7
:104AF000E258FD4F83898F3F51F0129FF001139FC1
:104B0000F00D1124E258FD4F83898150838B21964B
:104B1000C530D10509F0A4CFDF91CF911F910F913E
:104B2000FF90EF900895CF92DF92FF920F931F9323
:104B3000CF93DF938091B1019091B201009709F476
:104B4000D1C1209194033091950332272327322736
:104B500082179307A1F040E04F5FC42FD0E0FE0121
:104B6000EE0FFF1FEE0FFF1FEF54FE4F808191816C
:104B7000009709F4B7C18217930771F702C0C0E02C
:104B8000D0E0892B09F4AEC180919F03982F9271D8
:104B90009231D1F580E793E00E947A22409192030E
:104BA0005091930360918A0370918B0380918C03E1
:104BB00090918D030E948523182F853008F092C1B3
:104BC00026E1829FE0011124C258DD4F8EE18B8BDC
:104BD0006C857D858E859F850E947C1D6F5F7F4FD4
:104BE0008F4F9F4F0E947C1D6C877D878E879F878C
:104BF00080E1888B612F80E090E00E94EA2381E0D1
:104C000090E09A8B898B6EC1823019F580E793E032
:104C10000E947A22409192035091930360918A03FB
:104C200070918B0380918C0390918D030E9485235A
:104C3000853008F057C196E1899FF0011124E258B0
:104C4000FD4F92E1908B682F80E090E00E94EA2374
:104C500049C1409192035091930360918A037091EE
:104C60008B0380918C0390918D030E948523F82EF5
:104C7000E4E0E817B8F580919F03857009F432C12C
:104C800080E793E00E947A220F2D10E0F6E1FF9E6C
:104C9000E0011124C258DD4F6C857D858E859F858E
:104CA0000E947C1D6F5F7F4F8F4F9F4F0E947C1D26
:104CB0006C877D878E879F87888980FF0FC086E1FC
:104CC000809FF001819FF00D1124E258FD4F80E19B
:104CD000808B6F2D80E090E00E94EA238F2D0E9450
:104CE000FE2400C180E793E00E947A22CF2CD12CD1
:104CF00026E1F29EF0011124E258FD4F808980FDEB
:104D00000BC086E18C9DF0018D9DF00D1124E258C1
:104D1000FD4F808982FF33C086E18C9D80018D9D8F
:104D2000100D112402581D4FF80164857585868584
:104D300097850E947C1D6F5F7F4F8F4F9F4F0E9412
:104D40007C1DF8016487758786879787808980FF37
:104D500012C0CC0FDD1FCC0FDD1FCF54DE4FEA8118
:104D6000FB818F2D0995F80181E1808B6F2D80E00B
:104D700090E00E94EA238F2D0E94FE24B3C086E1BA
:104D80008C9DF0018D9DF00D1124E258FD4F80891E
:104D900083FF3CC086E18C9DF0018D9DF00D1124B8
:104DA000E258FD4F808984FF31C086E18C9DF0017F
:104DB0008D9DF00D1124E258FD4F818992898E3F1F
:104DC0009F4F68F486E18C9DF0018D9DF00D1124BC
:104DD000E258FD4F818992890196928B818B86E101
:104DE0008C9DF0018D9DF00D1124E258FD4F88E15E
:104DF000808BFE01EE0FFF1FEE0FFF1FEF54FE4FE3
:104E00000280F381E02D8F2D09956CC086E18C9D89
:104E1000F0018D9DF00D1124E258FD4F808984FF33
:104E200017C086E18C9DF0018D9DF00D1124ED568B
:104E3000FD4F808180FD0CC086E18C9DF0018D9D31
:104E4000F00D1124ED56FD4F8081816080834AC0B2
:104E500086E18C9DF0018D9DF00D1124E258FD4FEF
:104E6000808984FF3FC086E18C9DF0018D9DF00D0F
:104E70001124ED56FD4F808180FF34C086E18C9D6A
:104E8000F0018D9DF00D1124E258FD4F818992892A
:104E9000019641F186E18C9DF0018D9DF00D11246C
:104EA000E258FD4F80E1808B818992898E3F9F4F30
:104EB00068F486E18C9DF0018D9DF00D1124E2587F
:104EC000FD4F818992890196928B818BFE01EE0FB5
:104ED000FF1FEE0FFF1FEF54FE4F0280F381E02D06
:104EE0008F2D0995DF91CF911F910F91FF90DF904A
:104EF000CF900895EF92FF920F931F9380917C03C0
:104F000090917D03883026E0920719F40E94F320E7
:104F10007AC0089709F077C080918E0390918F0333
:104F2000A0919003B09191034091CF055091D0058D
:104F30006091D1057091D20584179507A607B70730
:104F400009F048C00E94F51E809187038130B9F5B1
:104F5000809192038823C1F0883009F054C0E0901A
:104F60009603F09097030091980310919903609134
:104F70008A0370918B0380918C0390918D0320E0C4
:104F800040E00E942D223FC04091C9055091CA05C2
:104F90006091CB057091CC0580918A0390918B0331
:104FA000A0918C03B0918D03481759076A077B07BE
:104FB00051F5EEECF5E080818160808324C086307D
:104FC00011F40E949325809187038131E1F40E94BE
:104FD000B62319C08F3F2FEF9207A207B20769F0DF
:104FE0004091DB055091DC056091DD057091DE0597
:104FF00084179507A607B70731F48091870381319D
:1050000011F40E94B6231F910F91FF90EF90089525
:105010008091680281FF09C00E9422250E94651EBE
:10502000809168028D7F809368028091680280FD84
:105030000FC0089560E773E088E592E00E94E91CE4
:10504000009731F0FC01E059FC4F11820E947A2751
:10505000B29BF0CF809168028E7F809368028BB7FD
:1050600080628BBF08956F927F928F929F92AF92D2
:10507000BF92CF92DF92EF92FF920F931F93CF9345
:10508000DF93CDB7DEB7AA970FB6F894DEBF0FBE99
:10509000CDBF6B017C018091CF059091D005A0918F
:1050A000D105B091D2058C259D25AE25BF25409117
:1050B000D7055091D8056091D9057091DA05842300
:1050C0009523A623B723892B8A2B8B2B49F010918C
:1050D000D3050091D405B090D505A090D60504C0A5
:1050E0001C2D0D2DBE2CAF2C88E096E09E878D8761
:1050F000412F502F6B2D7A2DCE0101960E94B120A9
:105100008091CF059091D005A091D105B091D205A5
:105110008D8F9E8FAF8FB8A31FA308A7B9A6AAA68D
:10512000EAE6F3E0CE014796BE016F5D7F4F20E7D0
:1051300033E04191DC014D93CD01DB011D92BD01B6
:10514000E217F307B1F780E091E0988B8F8728E0B2
:1051500030E03A8B298B26E02B8B24E02C8B9E8B26
:105160008D8BBE016F5F7F4F8AE290E00E940D1C25
:105170000F2EF4E19F2EF02D612C712CC701B6018A
:105180000E947D20882E612F702F8B2D9A2D0E94DA
:105190007D20853020F0B4E0B815B8F024C094E04C
:1051A000981518F590E09C01220F331F820F931F72
:1051B000FC01EE0FFF1FEE0FFF1FE45DFD4FC682E7
:1051C000D782E086F18681E013C0262D372D0000BE
:1051D0002F5F3F4F2031A7E23A07C9F70E94082806
:1051E0009A9461F604C081E003C081E001C080E0D0
:1051F000AA960FB6F894DEBF0FBECDBFDF91CF9158
:105200001F910F91FF90EF90DF90CF90BF90AF90E4
:105210009F908F907F906F90089566E979E287E183
:1052200090E00E94B71E08950F931F93CF93DF93D2
:105230004091E5005091E6008091670390916803EA
:105240004817590709F46DC0809184029091850236
:105250008115974199F081E090E076E1682FEC01AB
:10526000789FF001799FF00D1124E258FD4F2681BF
:1052700037812115374109F044C003C0C0E0D0E0B8
:1052800060E08091690380FD4CC08091690381607A
:10529000809369038091E3009091E4009093680308
:1052A00080936703A6EAB3E080E090E008EC11E0A9
:1052B00011C09F012F5F3F4F309368032093670316
:1052C00070817D9301962B52324021F41093680334
:1052D00000936703E0916703F09168034E175F073F
:1052E00041F746E14C9F90014D9F300D1124E9019B
:1052F000C258DD4F28E1288B0E94EA2383E08B8B84
:1053000010C001968530910509F0A8CF06C08091A4
:10531000C7018B7F8093C70104C08091C70182FDC4
:10532000F6CFDF91CF911F910F910895EF92FF92E9
:105330000F931F93CF93DF93F82E90E026E1F29E18
:10534000F0011124E258FD4F208920FF06C0809112
:10535000C7018B7F8093C70127C126E1289FF001F9
:10536000299FF00D1124E258FD4F21893289232B0A
:1053700069F026E1289FF001299FF00D1124E258E1
:10538000FD4F218932892130310531F526E1289FF1
:10539000E001299FD00D1124C258DD4F81E090E03B
:1053A0009A8B898B46E150E06DE47EE186EA93E0DA
:1053B0000E946E2E6F2D86E190E00E94EA2380917C
:1053C000C70184608093C701809169038E7F8093B9
:1053D00069038FEF8B8BE8C026E1289FF001299F9E
:1053E000F00D1124E258FD4F218932892230310518
:1053F00008F494C026E1289FF001299FF00D1124A4
:10540000E258FD4F208923FF89C026E1289FF00143
:10541000299FF00D1124E258FD4F22E030E0328B3D
:10542000218B218932892230310530F126E1289FF4
:10543000F001299FF00D1124E258FD4F208924FF2F
:105440001BC02091690320FF17C026E1289FF001AF
:10545000299FF00D1124E258FD4F2FEF238B20914F
:105460006703309168033093E4002093E3002091B8
:1054700069032E7F2093690340919E03407F50E093
:1054800055954795559547959A012E5D3F4F6091EB
:10549000800370E0762F6627E09181036E0F711D07
:1054A0006E5D7F4FDB01A41BB50B2A173B0734F55C
:1054B000F901E059FC4F60E873E001E813E0CEE940
:1054C000D3E05D9BFECF41914CB92F5F3F4FDB0195
:1054D0004C9150E0542F4427D801EC904E0D511DB3
:1054E0004E5D5F4FA881A07FB0E0B595A795B595BB
:1054F000A7954A1B5B0B241735071CF326E1289F51
:10550000F001299FF00D1124E258FD4F80E1808BBE
:105510006F2D80E090E00E94EA2346C026E1289F9C
:10552000F001299FF00D1124E258FD4F21893289A5
:105530002230310538F126E1289FF001299FF00D36
:105540001124E258FD4F208924FF1CC020916903DB
:1055500020FF18C026E1289FF001299FF00D11249B
:10556000E258FD4F8FEF838B809167039091680322
:105570009093E4008093E300809169038E7F809391
:10558000690312C026E1289FF001299FF00D112424
:10559000E258FD4F8089811107C0809169038E7F99
:1055A000809369030E941429DF91CF911F910F917D
:1055B000FF90EF9008958EB58D608EBD1DBC1CBC14
:1055C00088E09DE39BBD8ABD89B7806189BF08954E
:1055D0001F920F920FB60F9211242F933F938F9328
:1055E0009F93AF93BF938091040390910503A09183
:1055F0000603B09107030196A11DB11D809304031A
:1056000090930503A0930603B093070380910203D0
:10561000909103039C012F5F3F4F3093030320932E
:105620000203813B944018F0E0E0F0E0099480919F
:105630006802826080936802BF91AF919F918F91C1
:105640003F912F910F900FBE0F901F90189528E952
:105650002AB9DC01CB01880F991FAA1FBB1F880F35
:10566000991FAA1FBB1F9C01AD01220F331F441FAE
:10567000551F220F331F441F551F60E074E284EF53
:1056800090E00E94F22C215029B98091C7018B7FB4
:105690008093C70108959091C70192FD03C05D9B5F
:1056A000FECF8CB90895CF93DF93EC0188818823D6
:1056B00031F021960E944B2B89918111FBCFDF9114
:1056C000CF9108952F923F924F925F926F927F9267
:1056D0008F929F92AF92BF92CF92DF92EF92FF9202
:1056E0000F931F93CF93DF93CDB7DEB764970FB6B9
:1056F000F894DEBF0FBECDBFFE01B99601911191A6
:105700006F01812C612C512C712C0F2EF0E39F2EF8
:10571000F02D0F2EFAE04F2EF02D6894332434F83C
:105720006894222423F878018FEFE81AF80AF80128
:105730008491882309F4A0C0853209F099C05801EA
:10574000F2E0AF0EB11CF7012491822F90E0C097D8
:105750000A9760F42B877C86CE010B960E94482E18
:10576000882E0D5F1F4FF501249101C08501293658
:1057700091F128F4223651F0233609F1D4CF2337A2
:1057800039F0283731F12F3671F621C042E024C0BC
:10579000F6010190F081E02D82E0C80ED11C8081DD
:1057A000882309F4C0CF7F019FEFE91AF90A0E940C
:1057B0004B2BF70181917F018111F9CFB4CFF60115
:1057C0008081F2E0CF0ED11C0E944B2BACCF422D3A
:1057D00003C0432D01C0442D760182E0E80EF11C88
:1057E00050E0BE016F5F7F4FF601808191810E9482
:1057F000312FFE013196862D952D9C012F5F3F4F55
:105800004191442311F0C901F8CF282D30E08217CF
:1058100093073CF5881A282D30E01216130654F42D
:10582000FE013B96CF01880D911D9192E817F90773
:10583000E1F702C0262D352DEBE0F0E0EC0FFD1F67
:10584000E20FF31F1082BE016F5F7F4FCE010B96F8
:105850000E94FC2EBE01655F7F4FCE0101960E9423
:10586000072FCE0101960E94532B6701872C5BCF37
:105870000E944B2B870157CF64960FB6F894DEBF7A
:105880000FBECDBFDF91CF911F910F91FF90EF9091
:10589000DF90CF90BF90AF909F908F907F906F9050
:1058A0005F904F903F902F9008951F920F920FB6E8
:1058B0000F9211242F933F934F935F936F937F9396
:1058C0008F939F93AF93BF93CF93EF93FF93809169
:1058D000C70182FD54C0CCB18C2F0E944B2B80910C
:1058E000C70180FF06C08091C70182608093C70115
:1058F00067C0C83089F48091C5019091C601892B99
:1059000009F45EC08091C5019091C6010197909302
:10591000C6018093C50154C0CD30D1F4E091C501DA
:10592000F091C601E953FE4F80818C3589F0E091FA
:10593000C501F091C601E853FE4F10821092C601D6
:105940001092C5018091C70181608093C70138C062
:105950002091C5013091C6012336310588F520918B
:10596000C5013091C601A9014F5F5F4F5093C60139
:105970004093C501F901E853FE4FC08321C0E09177
:10598000E500F091E6008091E3009091E40001973A
:10599000E817F907A9F0CF0101969093E6008093EC
:1059A000E5008CB180838091E5009091E6008B52F8
:1059B000924031F488EC91E09093E6008093E5000A
:1059C000FF91EF91CF91BF91AF919F918F917F9177
:1059D0006F915F914F913F912F910F900FBE0F905C
:1059E0001F901895A1E21A2EAA1BBB1BFD010DC02A
:1059F000AA1FBB1FEE1FFF1FA217B307E407F5077F
:105A000020F0A21BB30BE40BF50B661F771F881F5A
:105A1000991F1A9469F760957095809590959B01F0
:105A2000AC01BD01CF0108952F923F925F926F921A
:105A30007F928F929F92AF92BF92CF92DF92EF921E
:105A4000FF920F931F93CF93DF938B01EA016115B0
:105A5000710521F0DB018C9311969C93209739F00E
:105A60009E01225031092332310508F0FBC07C0130
:105A70006701BFEFCB1ADB0A5601F7016080862D64
:105A800090E00E94662E892B11F07601F1CFFDE2A5
:105A90006F120AC0570182E0A80EB11CD7011196FF
:105AA0006C90772473940BC0BBE26B1207C0570154
:105AB000E2E0AE0EB11CD70111966C90712CCE01B4
:105AC0008F7E892B89F4B0E36B1222C0F5018081AF
:105AD0008F7D883541F56180F2E0AF0EB11C872DD6
